{
  "contractName": "Registrar",
  "abi": [
    {
      "constant": true,
      "inputs": [],
      "name": "owner",
      "outputs": [
        {
          "name": "",
          "type": "address"
        }
      ],
      "payable": false,
      "stateMutability": "view",
      "type": "function",
      "signature": "0x8da5cb5b"
    },
    {
      "constant": true,
      "inputs": [
        {
          "name": "",
          "type": "uint256"
        }
      ],
      "name": "studentAccts",
      "outputs": [
        {
          "name": "",
          "type": "address"
        }
      ],
      "payable": false,
      "stateMutability": "view",
      "type": "function",
      "signature": "0xb37d1f42"
    },
    {
      "constant": false,
      "inputs": [
        {
          "name": "newOwner",
          "type": "address"
        }
      ],
      "name": "transferOwnership",
      "outputs": [],
      "payable": false,
      "stateMutability": "nonpayable",
      "type": "function",
      "signature": "0xf2fde38b"
    },
    {
      "inputs": [],
      "payable": false,
      "stateMutability": "nonpayable",
      "type": "constructor",
      "signature": "constructor"
    },
    {
      "anonymous": false,
      "inputs": [
        {
          "indexed": false,
          "name": "grade",
          "type": "string"
        },
        {
          "indexed": false,
          "name": "studentAddr",
          "type": "address"
        },
        {
          "indexed": false,
          "name": "fName",
          "type": "string"
        },
        {
          "indexed": false,
          "name": "lName",
          "type": "string"
        },
        {
          "indexed": false,
          "name": "email",
          "type": "string"
        },
        {
          "indexed": false,
          "name": "className",
          "type": "string"
        }
      ],
      "name": "studentInfoSet",
      "type": "event",
      "signature": "0xeb01e5f67eb4012e734a88491c4ccb6a775d42e662e3d132fd1f69fea2e3057f"
    },
    {
      "anonymous": false,
      "inputs": [
        {
          "indexed": true,
          "name": "previousOwner",
          "type": "address"
        },
        {
          "indexed": true,
          "name": "newOwner",
          "type": "address"
        }
      ],
      "name": "OwnershipTransferred",
      "type": "event",
      "signature": "0x8be0079c531659141344cd1fd0a4f28419497f9722a3daafe3b4186f6b6457e0"
    },
    {
      "constant": false,
      "inputs": [
        {
          "name": "_address",
          "type": "address"
        },
        {
          "name": "_grade",
          "type": "string"
        },
        {
          "name": "_fName",
          "type": "string"
        },
        {
          "name": "_lName",
          "type": "string"
        },
        {
          "name": "_email",
          "type": "string"
        },
        {
          "name": "_className",
          "type": "string"
        }
      ],
      "name": "setStudent",
      "outputs": [],
      "payable": false,
      "stateMutability": "nonpayable",
      "type": "function",
      "signature": "0xbc736646"
    },
    {
      "constant": true,
      "inputs": [],
      "name": "getStudents",
      "outputs": [
        {
          "name": "",
          "type": "address[]"
        }
      ],
      "payable": false,
      "stateMutability": "view",
      "type": "function",
      "signature": "0xf1d064b3"
    },
    {
      "constant": true,
      "inputs": [
        {
          "name": "_address",
          "type": "address"
        }
      ],
      "name": "getStudent",
      "outputs": [
        {
          "name": "",
          "type": "string"
        },
        {
          "name": "",
          "type": "address"
        },
        {
          "name": "",
          "type": "string"
        },
        {
          "name": "",
          "type": "string"
        },
        {
          "name": "",
          "type": "string"
        },
        {
          "name": "",
          "type": "string"
        }
      ],
      "payable": false,
      "stateMutability": "view",
      "type": "function",
      "signature": "0x6b7b44d7"
    },
    {
      "constant": true,
      "inputs": [],
      "name": "countStudents",
      "outputs": [
        {
          "name": "",
          "type": "uint256"
        }
      ],
      "payable": false,
      "stateMutability": "view",
      "type": "function",
      "signature": "0x477f5a69"
    },
    {
      "constant": false,
      "inputs": [],
      "name": "stopRegistry",
      "outputs": [
        {
          "name": "",
          "type": "bool"
        }
      ],
      "payable": false,
      "stateMutability": "nonpayable",
      "type": "function",
      "signature": "0xc2feb650"
    },
    {
      "constant": false,
      "inputs": [],
      "name": "startRegistry",
      "outputs": [],
      "payable": false,
      "stateMutability": "nonpayable",
      "type": "function",
      "signature": "0x976e68a3"
    }
  ],
  "bytecode": "0x608060405260008060146101000a81548160ff02191690831515021790555034801561002a57600080fd5b50336000806101000a81548173ffffffffffffffffffffffffffffffffffffffff021916908373ffffffffffffffffffffffffffffffffffffffff16021790555033600160006101000a81548173ffffffffffffffffffffffffffffffffffffffff021916908373ffffffffffffffffffffffffffffffffffffffff160217905550611686806100bb6000396000f3fe608060405260043610610099576000357c0100000000000000000000000000000000000000000000000000000000900463ffffffff168063477f5a691461009e5780636b7b44d7146100c95780638da5cb5b14610376578063976e68a3146103cd578063b37d1f42146103e4578063bc7366461461045f578063c2feb650146107a3578063f1d064b3146107d2578063f2fde38b1461083e575b600080fd5b3480156100aa57600080fd5b506100b361088f565b6040518082815260200191505060405180910390f35b3480156100d557600080fd5b50610118600480360360208110156100ec57600080fd5b81019080803573ffffffffffffffffffffffffffffffffffffffff16906020019092919050505061089c565b60405180806020018773ffffffffffffffffffffffffffffffffffffffff1673ffffffffffffffffffffffffffffffffffffffff1681526020018060200180602001806020018060200186810386528c818151815260200191508051906020019080838360005b8381101561019a57808201518184015260208101905061017f565b50505050905090810190601f1680156101c75780820380516001836020036101000a031916815260200191505b5086810385528a818151815260200191508051906020019080838360005b838110156102005780820151818401526020810190506101e5565b50505050905090810190601f16801561022d5780820380516001836020036101000a031916815260200191505b50868103845289818151815260200191508051906020019080838360005b8381101561026657808201518184015260208101905061024b565b50505050905090810190601f1680156102935780820380516001836020036101000a031916815260200191505b50868103835288818151815260200191508051906020019080838360005b838110156102cc5780820151818401526020810190506102b1565b50505050905090810190601f1680156102f95780820380516001836020036101000a031916815260200191505b50868103825287818151815260200191508051906020019080838360005b83811015610332578082015181840152602081019050610317565b50505050905090810190601f16801561035f5780820380516001836020036101000a031916815260200191505b509b50505050505050505050505060405180910390f35b34801561038257600080fd5b5061038b610d74565b604051808273ffffffffffffffffffffffffffffffffffffffff1673ffffffffffffffffffffffffffffffffffffffff16815260200191505060405180910390f35b3480156103d957600080fd5b506103e2610d99565b005b3480156103f057600080fd5b5061041d6004803603602081101561040757600080fd5b8101908080359060200190929190505050610e10565b604051808273ffffffffffffffffffffffffffffffffffffffff1673ffffffffffffffffffffffffffffffffffffffff16815260200191505060405180910390f35b34801561046b57600080fd5b506107a1600480360360c081101561048257600080fd5b81019080803573ffffffffffffffffffffffffffffffffffffffff169060200190929190803590602001906401000000008111156104bf57600080fd5b8201836020820111156104d157600080fd5b803590602001918460018302840111640100000000831117156104f357600080fd5b91908080601f016020809104026020016040519081016040528093929190818152602001838380828437600081840152601f19601f8201169050808301925050505050505091929192908035906020019064010000000081111561055657600080fd5b82018360208201111561056857600080fd5b8035906020019184600183028401116401000000008311171561058a57600080fd5b91908080601f016020809104026020016040519081016040528093929190818152602001838380828437600081840152601f19601f820116905080830192505050505050509192919290803590602001906401000000008111156105ed57600080fd5b8201836020820111156105ff57600080fd5b8035906020019184600183028401116401000000008311171561062157600080fd5b91908080601f016020809104026020016040519081016040528093929190818152602001838380828437600081840152601f19601f8201169050808301925050505050505091929192908035906020019064010000000081111561068457600080fd5b82018360208201111561069657600080fd5b803590602001918460018302840111640100000000831117156106b857600080fd5b91908080601f016020809104026020016040519081016040528093929190818152602001838380828437600081840152601f19601f8201169050808301925050505050505091929192908035906020019064010000000081111561071b57600080fd5b82018360208201111561072d57600080fd5b8035906020019184600183028401116401000000008311171561074f57600080fd5b91908080601f016020809104026020016040519081016040528093929190818152602001838380828437600081840152601f19601f820116905080830192505050505050509192919290505050610e4e565b005b3480156107af57600080fd5b506107b8611353565b604051808215151515815260200191505060405180910390f35b3480156107de57600080fd5b506107e76113d2565b6040518080602001828103825283818151815260200191508051906020019060200280838360005b8381101561082a57808201518184015260208101905061080f565b505050509050019250505060405180910390f35b34801561084a57600080fd5b5061088d6004803603602081101561086157600080fd5b81019080803573ffffffffffffffffffffffffffffffffffffffff169060200190929190505050611460565b005b6000600380549050905090565b60606000606080606080600260008873ffffffffffffffffffffffffffffffffffffffff1673ffffffffffffffffffffffffffffffffffffffff168152602001908152602001600020600001600260008973ffffffffffffffffffffffffffffffffffffffff1673ffffffffffffffffffffffffffffffffffffffff16815260200190815260200160002060010160009054906101000a900473ffffffffffffffffffffffffffffffffffffffff16600260008a73ffffffffffffffffffffffffffffffffffffffff1673ffffffffffffffffffffffffffffffffffffffff168152602001908152602001600020600201600260008b73ffffffffffffffffffffffffffffffffffffffff1673ffffffffffffffffffffffffffffffffffffffff168152602001908152602001600020600301600260008c73ffffffffffffffffffffffffffffffffffffffff1673ffffffffffffffffffffffffffffffffffffffff168152602001908152602001600020600401600260008d73ffffffffffffffffffffffffffffffffffffffff1673ffffffffffffffffffffffffffffffffffffffff168152602001908152602001600020600501858054600181600116156101000203166002900480601f016020809104026020016040519081016040528092919081815260200182805460018160011615610100020316600290048015610ae85780601f10610abd57610100808354040283529160200191610ae8565b820191906000526020600020905b815481529060010190602001808311610acb57829003601f168201915b50505050509550838054600181600116156101000203166002900480601f016020809104026020016040519081016040528092919081815260200182805460018160011615610100020316600290048015610b845780601f10610b5957610100808354040283529160200191610b84565b820191906000526020600020905b815481529060010190602001808311610b6757829003601f168201915b50505050509350828054600181600116156101000203166002900480601f016020809104026020016040519081016040528092919081815260200182805460018160011615610100020316600290048015610c205780601f10610bf557610100808354040283529160200191610c20565b820191906000526020600020905b815481529060010190602001808311610c0357829003601f168201915b50505050509250818054600181600116156101000203166002900480601f016020809104026020016040519081016040528092919081815260200182805460018160011615610100020316600290048015610cbc5780601f10610c9157610100808354040283529160200191610cbc565b820191906000526020600020905b815481529060010190602001808311610c9f57829003601f168201915b50505050509150808054600181600116156101000203166002900480601f016020809104026020016040519081016040528092919081815260200182805460018160011615610100020316600290048015610d585780601f10610d2d57610100808354040283529160200191610d58565b820191906000526020600020905b815481529060010190602001808311610d3b57829003601f168201915b5050505050905095509550955095509550955091939550919395565b6000809054906101000a900473ffffffffffffffffffffffffffffffffffffffff1681565b6000809054906101000a900473ffffffffffffffffffffffffffffffffffffffff1673ffffffffffffffffffffffffffffffffffffffff163373ffffffffffffffffffffffffffffffffffffffff16141515610df457600080fd5b60008060146101000a81548160ff021916908315150217905550565b600381815481101515610e1f57fe5b906000526020600020016000915054906101000a900473ffffffffffffffffffffffffffffffffffffffff1681565b6000809054906101000a900473ffffffffffffffffffffffffffffffffffffffff1673ffffffffffffffffffffffffffffffffffffffff163373ffffffffffffffffffffffffffffffffffffffff16141515610ea957600080fd5b60001515600060149054906101000a900460ff161515141515610f5a576040517f08c379a00000000000000000000000000000000000000000000000000000000081526004018080602001828103825260228152602001807f546869732066756e6374696f6e2069732063757272656e746c792073746f707081526020017f656400000000000000000000000000000000000000000000000000000000000081525060400191505060405180910390fd5b6000600260008873ffffffffffffffffffffffffffffffffffffffff1673ffffffffffffffffffffffffffffffffffffffff168152602001908152602001600020905085816000019080519060200190610fb59291906115b5565b50868160010160006101000a81548173ffffffffffffffffffffffffffffffffffffffff021916908373ffffffffffffffffffffffffffffffffffffffff160217905550848160020190805190602001906110119291906115b5565b508381600301908051906020019061102a9291906115b5565b50828160040190805190602001906110439291906115b5565b508181600501908051906020019061105c9291906115b5565b50600160038890806001815401808255809150509060018203906000526020600020016000909192909190916101000a81548173ffffffffffffffffffffffffffffffffffffffff021916908373ffffffffffffffffffffffffffffffffffffffff16021790555050507feb01e5f67eb4012e734a88491c4ccb6a775d42e662e3d132fd1f69fea2e3057f86888787878760405180806020018773ffffffffffffffffffffffffffffffffffffffff1673ffffffffffffffffffffffffffffffffffffffff1681526020018060200180602001806020018060200186810386528c818151815260200191508051906020019080838360005b8381101561116f578082015181840152602081019050611154565b50505050905090810190601f16801561119c5780820380516001836020036101000a031916815260200191505b5086810385528a818151815260200191508051906020019080838360005b838110156111d55780820151818401526020810190506111ba565b50505050905090810190601f1680156112025780820380516001836020036101000a031916815260200191505b50868103845289818151815260200191508051906020019080838360005b8381101561123b578082015181840152602081019050611220565b50505050905090810190601f1680156112685780820380516001836020036101000a031916815260200191505b50868103835288818151815260200191508051906020019080838360005b838110156112a1578082015181840152602081019050611286565b50505050905090810190601f1680156112ce5780820380516001836020036101000a031916815260200191505b50868103825287818151815260200191508051906020019080838360005b838110156113075780820151818401526020810190506112ec565b50505050905090810190601f1680156113345780820380516001836020036101000a031916815260200191505b509b50505050505050505050505060405180910390a150505050505050565b60008060009054906101000a900473ffffffffffffffffffffffffffffffffffffffff1673ffffffffffffffffffffffffffffffffffffffff163373ffffffffffffffffffffffffffffffffffffffff161415156113b057600080fd5b6001600060146101000a81548160ff0219169083151502179055506001905090565b6060600380548060200260200160405190810160405280929190818152602001828054801561145657602002820191906000526020600020905b8160009054906101000a900473ffffffffffffffffffffffffffffffffffffffff1673ffffffffffffffffffffffffffffffffffffffff168152602001906001019080831161140c575b5050505050905090565b6000809054906101000a900473ffffffffffffffffffffffffffffffffffffffff1673ffffffffffffffffffffffffffffffffffffffff163373ffffffffffffffffffffffffffffffffffffffff161415156114bb57600080fd5b600073ffffffffffffffffffffffffffffffffffffffff168173ffffffffffffffffffffffffffffffffffffffff16141515156114f757600080fd5b8073ffffffffffffffffffffffffffffffffffffffff166000809054906101000a900473ffffffffffffffffffffffffffffffffffffffff1673ffffffffffffffffffffffffffffffffffffffff167f8be0079c531659141344cd1fd0a4f28419497f9722a3daafe3b4186f6b6457e060405160405180910390a3806000806101000a81548173ffffffffffffffffffffffffffffffffffffffff021916908373ffffffffffffffffffffffffffffffffffffffff16021790555050565b828054600181600116156101000203166002900490600052602060002090601f016020900481019282601f106115f657805160ff1916838001178555611624565b82800160010185558215611624579182015b82811115611623578251825591602001919060010190611608565b5b5090506116319190611635565b5090565b61165791905b8082111561165357600081600090555060010161163b565b5090565b9056fea165627a7a723058207f5d4d08b10b9f6736b626c97a85b9b911d89a0cbfdbc3c39fddb03c93ad8aac0029",
  "source": "pragma solidity ^0.5.0;\n\nimport \"../installed_contracts/zeppelin/contracts/ownership/Ownable.sol\";\n\n\ncontract Registrar is Ownable {\n    \n\n    /**\n    State Variables\n     */\n    struct Student {\n        string grade;\n        address studentAddr;\n        string fName;\n        string lName;\n        string email;\n        string className;\n    }\n    \n    bool private stopped = false;\n    address owner;\n\n    constructor() public {\n        owner = msg.sender;\n    }\n    \n\n    \n    /**\n    Mapping the address of the student to the Student Struct. \n     */\n    mapping (address => Student) Students;\n    \n    /**\n    Array of all the address in our registry. \n    */\n    address[] public studentAccts;\n\n    event studentInfoSet(\n        string grade,\n        address studentAddr,\n        string fName,\n        string lName,\n        string email,\n        string className\n        );\n    \n    /**\n    Modifiers\n     */\n    modifier stopInEmergency {\n        require(stopped == false, \"This function is currently stopped\");\n        _;\n    }\n\n\n\n     /** @dev Adds a student to our Registry. \n      * @param _address  the address  of the student being added to our registry\n      * @param _grade  The students final grade. \n      * @param _fName The Students first name that is being added to our registry.\n      * @param _lName  The Students last name that is being added to our registry. \n      * @param _email  The students email address \n      * @param _className  The name of the class \n      */\n    function setStudent (address _address, string memory _grade, string memory _fName, string memory _lName, string memory _email, string memory _className) onlyOwner stopInEmergency public {\n        \n\n        Student storage student = Students[_address];\n\n        student.grade = _grade;\n        student.studentAddr = _address;\n        student.fName = _fName;\n        student.lName = _lName;\n        student.email = _email;\n        student.className = _className;\n        \n        studentAccts.push(_address) -1;\n\n        emit studentInfoSet(_grade, _address, _fName, _lName, _email, _className);\n    }\n    \n    /** @dev gets all the addresses that are in our  \n      * @return _address  the array of address that have been added to our registry. \n      */\n    function getStudents () view public returns(address[] memory){\n        return studentAccts;\n    }\n\n     /** @dev Adds a student to our Registry. \n      * @param _address  the address  of the student being added to our registry\n      * @return _grade  The students final grade. \n      * @return addres  The students address. \n      * @return _fName The Students first name that is being added to our registry.\n      * @return lName  The Students last name that is being added to our registry. \n      * @return _email  The students email address \n      * @return  _className  The name of the class \n      */\n    function getStudent(address _address) view public returns (string memory, address, string memory, string memory, string memory, string memory){\n        return (Students[_address].grade, Students[_address].studentAddr, Students[_address].fName, Students[_address].lName, Students[_address].email, Students[_address].className);\n    }\n\n\n\n    /** @dev gets all the addresses that are in our  \n      * @return uint the number of students in our registry.  \n      */\n    function countStudents () view public returns (uint){\n        return studentAccts.length; \n    }\n\n    function stopRegistry () public onlyOwner returns (bool){\n        stopped = true;\n        return true;\n    }\n\n    function startRegistry() public onlyOwner{\n        stopped = false;\n    }\n\n\n}",
  "sourcePath": "/Users/patdoyle/Documents/projects/final-project-pd164594/contracts/registrar.sol",
  "compiler": {
    "name": "solc",
    "version": "0.5.0+commit.1d4f565a.Emscripten.clang"
  },
  "schemaVersion": "3.0.1",
  "updatedAt": "2019-01-25T02:21:07.740Z",
  "devdoc": {
    "methods": {
      "countStudents()": {
        "details": "gets all the addresses that are in our  ",
        "return": "uint the number of students in our registry.  "
      },
      "getStudent(address)": {
        "details": "Adds a student to our Registry. ",
        "params": {
          "_address": "the address  of the student being added to our registry"
        },
        "return": "_grade  The students final grade. addres  The students address. _fName The Students first name that is being added to our registry.lName  The Students last name that is being added to our registry. _email  The students email address _className  The name of the class "
      },
      "getStudents()": {
        "details": "gets all the addresses that are in our  ",
        "return": "_address  the array of address that have been added to our registry. "
      },
      "setStudent(address,string,string,string,string,string)": {
        "details": "Adds a student to our Registry. ",
        "params": {
          "_address": "the address  of the student being added to our registry",
          "_className": "The name of the class ",
          "_email": "The students email address ",
          "_fName": "The Students first name that is being added to our registry.",
          "_grade": "The students final grade. ",
          "_lName": "The Students last name that is being added to our registry. "
        }
      },
      "transferOwnership(address)": {
        "details": "Allows the current owner to transfer control of the contract to a newOwner.",
        "params": {
          "newOwner": "The address to transfer ownership to."
        }
      }
    }
  },
  "userdoc": {
    "methods": {}
  }
}